:02000000E72BEC
:1001BE0031343234333434340034053400340434BE
:1001CE0000348312A000200883169B001C141A080A
:1001DE008312BE0008008312071507108714B23071
:1001EE00A2008F30A1001330A000A00BFC28A10BA1
:1001FE00FC28A20BFC288312071107108710080099
:10020E008312071507148710B230A2008F30A10099
:10021E001330A000A00B1129A10B1129A20B11293B
:10022E00831207110710871008008312A1002008FF
:10023E0083169B008312210883169A001C155530D5
:10024E009D00AA309D009C1483128C1F2F293029EB
:10025E002B298C13080083123B08BD003A08BC0002
:10026E00A801A901122AA401A50105183F294029B8
:10027E005F29C730A0004329A00B422946294729F0
:10028E008312051C4B294C29472928083F3E840020
:10029E003130831380000130A4000030A5000D30F2
:1002AE00A100FB30A000A00B5A29A10B5A295F29EF
:1002BE0083128518632964298329C730A000672912
:1002CE00A00B66296A296B298312851C6F29702958
:1002DE006B2928083F3E84003230831380000130A2
:1002EE00A4000030A5000D30A100FB30A000A00B33
:1002FE007E29A10B7E298329831205198729882936
:10030E00A729C730A0008B29A00B8A298E298F29F7
:10031E008312051D932994298F2928083F3E8400B6
:10032E003330831380000130A4000030A5000D305F
:10033E00A100FB30A000A00BA229A10BA229A72986
:10034E008312051AAB29AC29CB29C730A000AF29DF
:10035E00A00BAE29B229B3298312051EB729B829DD
:10036E00B32928083F3E84003430831380000130C7
:10037E00A4000030A5000D30A100FB30A000A00BA2
:10038E00C629A10BC629CB298312851ACF29D029BC
:10039E00EF29C730A000D329A00BD229D629D729FF
:1003AE008312851EDB29DC29D72928083F3E8400CD
:1003BE002330831380000130A4000030A5000D30DF
:1003CE00A100FB30A000A00BEA29A10BEA29EF291E
:1003DE008312240825040319F529F6293C29233014
:1003EE003F06031DFB29FC290C2A3B08A1003A08F5
:1003FE00A0000310A00DA10D2008013EBC00210895
:10040E000318013E003EBD0087160130A8070318F1
:10041E00A90A0030A9073D082902031D182A3C0825
:10042E002802031C1B2A1C2A3A293B08A1003A0861
:10043E00A0000310A00DA10D2008013EA20021086E
:10044E000318013E003EA3003D082306031D312A7A
:10045E003C082206031D342A352A792A4008330621
:10046E00031D3A2A3B2A792A41083406031D402AE5
:10047E00412A792A42083506031D462A472A792A37
:10048E0043083606031D4C2A4D2A792A3A08403E67
:10049E0084002330831300060319562A572A792A1B
:1004AE00A601A7016F2A40302607A0003A082007B0
:1004BE00A100210884000008DF002608333E8400D6
:1004CE005F0880000130A6070318A70A0030A707AF
:1004DE003B082702031D752A3A082602031C782AB8
:1004EE00792A5A2A08008312AE01FF30831685003E
:1004FE008701831285018701831691010730DF0082
:10050E005F088312990483168113831287150712CD
:10051E008712AF01B001B101A12A3108E820831280
:10052E003108333E84003E08831380000130DF0023
:10053E005F08B1073108AA00AB013B082B02031D6F
:10054E00AA2A3A082A02031CAD2AAE2A942A32217C
:10055E0083123B08AB003A08AA000310AA0DAB0D9C
:10056E002A08013EAC002B080318013E003EAD00E8
:10057E003D082D06031DC52A3C082C06031DC82A5E
:10058E00C92ACC2A3A08013EB00030083F3E84000A
:10059E00831300083306031DD52AD62AF42A300801
:1005AE00403E840000083406031DDE2ADF2AF42AAA
:1005BE003008413E840000083506031DE72AE82A6C
:1005CE00F42A3008423E840000083606031DF02A45
:1005DE00F12AF42AAF01AF0AF42A2F03031DF82AD9
:1005EE00F92A632B3B08AB003A08AA000310AA0DA8
:1005FE00AB0D2A08013EAC002B080318013E003E4D
:10060E00AD003D082D06031D0E2B3C082C06031DC8
:10061E00112B122B632B871107128712AE01B1011A
:10062E00252B3108A0003108333E840083130008C7
:10063E001C210130DF005F088312B1073108AA00C8
:10064E00AB013B082B02031D2E2B3A082A02031C7A
:10065E00312B322B182BB201203087060630AC001E
:10066E001330AB00AD30AA00AA0B3B2BAB0B3B2BD0
:10067E00AC0B3B2B422B0130DF005F088312B2071D
:10068E0004303202031C4C2B4D2B332B0716F22059
:10069E0033308312AC00BB30AB00DF30AA00AA0BA4
:1006AE00562BAB0B562BAC0B562B5D2B0721831207
:1006BE00871507128712B32B2F08031D672B682B84
:1006CE00812B3B08AB003A08AA000310AA0DAB0D14
:1006DE002A08013EAC002B080318013E003EAD0077
:1006EE003D082D06031D7D2B3C082C060319802B7F
:1006FE00812B862B2F08031D852B862BA92B871567
:10070E00071287120130DF005F08AE07B201083012
:10071E0087060630AC001330AB00AD30AA00AA0B32
:10072E00962BAB0B962BAC0B962B9D2B0130DF0033
:10073E005F088312B20704303202031CA72BA82BCA
:10074E008E2BB32B2F03031DAD2BAE2BB32B87118B
:10075E0007168712AE014E2B05302E06031DB82B41
:10076E00B92BD52B87158716B201FE30AC00A730FA
:10077E00AB006530AA00AA0BC22BAB0BC22BAC0B85
:10078E00C22BC92B0130DF005F088312B2070C3079
:10079E003202031CD32BD42BBC2BAE0187110712B4
:1007AE0087160D30AC00AF30AB00B630AA00AA0BE6
:1007BE00DE2BAB0BDE2BAC0BDE2B00008C2A0028C5
:1007CE00DF20B300E020B400E120B500E220B60047
:1007DE00E320B700E420B800E520B900E620BA0017
:1007EE00E720BB00BC01BD01BE01BF0183017A2A17
:08400000FF3FFF3FFF3FFF3FC0
:02400E00B43FBD
:00000001FF
